:020000020000FC
:100000000C943F000C943E330C9419330C947E33C3
:100010000C943E000C949E330C943E000C945E3382
:100020000C943E000C943E000C943E000C943E0058
:100030000C943E000C94042F0C94312F0C943E0031
:100040000C943E000C943E000C943E000C943E0038
:100050000C943E000C943E000C943E000C943E0028
:100060000C943E000C943E000C943E000C943E0018
:100070000C943E000C943E000C943E0018950FEF3B
:100080000DBF08E00EBFA4E6B0E00E94E93A0E946E
:100090004C050E94413A0E9483050E94191100E01C
:1000A0000093BA0600E00093BB0600E00093BC0694
:1000B00000E00093BD0600270093EC0600E00093EB
:1000C000F90600E00093FA060FE00093540600EAF8
:1000D0000093550600E000935606E4E0F7E0E09355
:1000E0000207F09303070E949D140E94B91B7894A5
:1000F0000E94FC3A093011F40E94EF0F0E94B91BD4
:1001000006E006BB0E94E32E0E94FD330E940D050F
:100110000E94901A0E947A080E9422280E94CD080C
:100120000E94EE260E94F0050E94D1070E94352F02
:100130000090F9061090FA06011481F00091F9067A
:100140000093FA060090E30600940092F1060090F6
:10015000E9061090F10601280092E9060090ED06EC
:100160001090EE0601240092F1060090E306009440
:100170000092F2060090F1061090F2060120009223
:10018000F1060090E9061090F10601280092E906B8
:100190000090ED061090ED0601200092EE06009111
:1001A000E90600232AF400270093E9060E94D118EB
:1001B0000091E30600230AF4A5CF03B10095029550
:1001C0000F70013021F000E00093EF069BCF00910B
:1001D000EF0603950093EF060091EF06023309F452
:1001E00091CF90E090936F000E9417070E949C357A
:1001F00085CF0091720600937606009173060093F6
:1002000077060091740600937806009175060093B6
:100210007906089520907206309073064090740617
:100220005090750660907206709073068090740608
:10023000909075060E94D63B1093960620939706E1
:1002400030939806409399065091960660919706D0
:10025000709198068091990601E00E94423C50936B
:10026000960660939706709398068093990601E02E
:1002700000939A0600E000939B0600E000939C0622
:1002800000E000939D0610919A0620919B06309104
:100290009C0640919D06509196066091970670913C
:1002A000980680919906481B370B260B150B109367
:1002B0007A0620937B0630937C0640937D06089552
:1002C000B0937206A0937306D0937406C09375061C
:1002D00003E00093960607E0009397060EEA00936A
:1002E000980600E0009399062090720630907306FD
:1002F0004090740650907506609096067090970630
:1003000080909806909099060E94D63B10937206B2
:100310002093730630937406409375060895CD2F8D
:10032000DA2FAB2FBB2312F4BFEF0895BB2708953C
:1003300060DF70DF20908E0630908F064090900630
:100340005090910660907A0670907B0680907C06B3
:1003500090907D060E94D63B1093A6062093A70698
:100360003093A8064093A9062090920630909306F9
:1003700040909406509095066090760670907706AF
:1003800080907806909079060E94D63B109396064E
:100390002093970630939806409399061091A606ED
:1003A0002091A7063091A8064091A9065091960683
:1003B000609197067091980680919906481B370BBB
:1003C000260B150B1093A6062093A7063093A806BC
:1003D0004093A90620908E0630908F06409090069C
:1003E000509091066090760670907706809078061F
:1003F000909079060E94D63B1093AA062093AB06F4
:100400003093AC064093AD06209092063090930650
:10041000409094065090950660907A0670907B0606
:1004200080907C0690907D060E94D63B10939606A5
:100430002093970630939806409399061091AA0648
:100440002091AB063091AC064091AD0650919606D6
:10045000609197067091980680919906480F371F12
:10046000261F151F1093AA062093AB063093AC06E7
:100470004093AD060895B0915805A0915905D091CB
:100480005A054DDF1DDF0091820600938E06009114
:10049000830600938F0600918406009390060091D6
:1004A00085060093910600918606009392060091BE
:1004B00087060093930600918806009394060091A6
:1004C00089060093950634DF0091A6060093820604
:1004D0000091A706009383060091A8060093840666
:1004E0000091A906009385060091AA06009386064E
:1004F0000091AB06009387060091AC060093880636
:100500000091AD0600938906B0915505A09156055E
:10051000D091570504DFD4DE00917E0600938E064D
:1005200000917F0600938F0600918006009390064D
:100530000091810600939106009186060093920631
:100540000091870600939306009188060093940615
:100550000091890600939506EBDE0091A6060093B4
:100560007E060091A70600937F060091A8060093DF
:1005700080060091A906009381060091AA060093C7
:1005800086060091AB06009387060091AC060093A7
:1005900088060091AD0600938906B0915B05A09195
:1005A0005C05D0915D05BBDE8BDE00917E0600937D
:1005B0008E0600917F0600938F06009180060093BF
:1005C00090060091810600939106009182060093A7
:1005D000920600918306009393060091840600938F
:1005E00094060091850600939506A2DE0091A6066A
:1005F00000937E060091A70600937F060091A8064F
:10060000009380060091A906009381060091AA0636
:10061000009382060091AB06009383060091AC061E
:10062000009384060091AD060093850608952090FE
:100630007E0630907F064090800650908106609044
:100640007E0670907F0680908006909081060E94C2
:10065000D63B1093960620939706309398064093C6
:100660009906209082063090830640908406509030
:100670008506609082067090830680908406909034
:1006800085060E94D63B10939A0620939B063093D2
:100690009C0640939D0610919606209197063091F6
:1006A00098064091990650919A0660919B06709128
:1006B0009C0680919D06480F371F261F151F10931B
:1006C00096062093970630939806409399062090BB
:1006D0008606309087064090880650908906609084
:1006E00086067090870680908806909089060E9402
:1006F000D63B10939A0620939B0630939C0640931A
:100700009D0610919606209197063091980640918B
:10071000990650919A0660919B0670919C06809173
:100720009D06480F371F261F151F10938A0620931A
:100730008B0630938C0640938D06089500917E06BB
:100740000093A20600917F060093A3060091800605
:100750000093A406009181060093A5062AD000917B
:10076000660600936006009167060093610600919B
:10077000680600936206009182060093A20600912B
:1007800083060093A306009184060093A4060091BB
:1007900085060093A5060DD00091660600936306BA
:1007A0000091670600936406009168060093650651
:1007B00008950AE500939A0600E000939B0600E086
:1007C00000939C0600E000939D062090A2063090C6
:1007D000A3064090A4065090A50660909A067090DB
:1007E0009B0680909C0690909D060E94D63B10939D
:1007F0009606209397063093980640939906B091F9
:100800009606A0919706D0919806C091990687DD2B
:10081000B0936606A0936706D093680608950E9479
:10082000963A01E00093B80601E00093B90600E0B3
:100830000093B40601E00093B506EF93FF93EAEA54
:10084000F9E00E94AE38FF91EF91ECE8F0E00E94F1
:10085000263BBB270E94533800E00093B40600906B
:10086000B50609E0000E0092B506EF93FF93E8EBA2
:10087000F9E00E94AE38FF91EF910E94263B0E9462
:10088000533800E00093B4060090B50609E0000E6E
:100890000092B506EF93FF93E6ECF9E00E94AE38C4
:1008A000FF91EF910E94263B0E94533800E0009395
:1008B000B4060090B50609E0000E0092B506EF936D
:1008C000FF93E4EDF9E00E94AE38FF91EF910E94B2
:1008D000263B0E94533800E00093B4060090B50612
:1008E00009E0000E0092B506EF93FF93E2EEF9E007
:1008F0000E94AE38FF91EF910E94263B0E94533830
:1009000000E00093B40609E30093B506EF93FF936C
:10091000E0EFF9E00E94AE38FF91EF91E6E0FAE0F7
:1009200004E0019FE00DF11D05910093B4060591CF
:100930000093B50605910093B60604910093B7069F
:1009400000E00093B8060E94CC370E94413A0E9412
:100950000D3B083009F40895043021F41A950AF487
:1009600014E05DCF023029F41395153009F410E03E
:1009700056CF0130C9F4ECE8F0E001E0019FE00D52
:10098000F11D0E94263BC1E0D0E0E8E0F0E0B0E0DD
:100990000E948B24A02DB12DECE8F0E001E0019F36
:1009A000E00DF11D0E942A3B3ACF526F6C6C20285B
:1009B00041696C2920203A005069746368202845F9
:1009C0006C6529203A005468726F74746C6520203D
:1009D00020203A0059617720285275642920202070
:1009E0003A004155582020202020202020203A0085
:1009F0004241434B2050524556204E4558542043C7
:100A000048414E4745004D0055094D0955124D12BC
:100A1000551B4D1B55244D24552D00E000934005DA
:100A200000934105009342053091540640915506CC
:100A300050915606609140057091410580914205A4
:100A400058174707360759F030915406409155061C
:100A5000415030403093540640935506089500911C
:100A6000D70600231AF002E00093F9060091D80699
:100A700000231AF003E00093F9060091D906002341
:100A80001AF004E00093F9060091DA0600231AF048
:100A900005E00093F906089500E001B90AE004B901
:100AA0000FEF07B902EF0AB90FEF00937E0005EFD1
:100AB00005B90DE00BB900E00093800002E000935F
:100AC000810000E00093820005E10093690007E0E7
:100AD0000DBB0AE00093680001E00093730001E0A1
:100AE00000936C005D9A5C9A5E982B9A299AA4EF09
:100AF000B1E00E94E93A2B9829985E9AA4E6B0E00A
:100B00000E94E93A08950E94963A01E00093B806DF
:100B100001E00093B90600E00093B4060AE00093F8
:100B2000B506EF93FF93ECE5FBE00E94AE38FF9132
:100B3000EF9100E00093B40603E10093B506EF9354
:100B4000FF93E8E6FBE00E94AE38FF91EF910E9430
:100B5000413AA8EEB3E00E94E93A089556657273EF
:100B6000696F6E20312E3400427920526F6C6620FE
:100B700052756E61722042616B6B65000E94963AFD
:100B800001E00093B80601E00093B90604E1009388
:100B9000B40609E10093B506EF93FF93EEEBF4E1A1
:100BA0000E94AE38FF91EF9100E00093B40609E394
:100BB0000093B506EF93FF93ECECF4E10E94AE389E
:100BC000FF91EF910E94413A0E940D3B013009F0E4
:100BD00008950027E0E0F0E00E944A3B0C943F00BB
:100BE00000E00093400500934105009342053091D9
:100BF00048064091490650914A066091400570911F
:100C000041058091420558174707360759F0309142
:100C10004806409149064150304030934806409381
:100C2000490603C000270093F8060090E3061090E1
:100C3000E50601200092F1060091F1060023B2F5CD
:100C4000309145064091460641503040309345066C
:100C50004093460600E00093400500934105009351
:100C600042053091450640914606509147066091F5
:100C70004005709141058091420558174707360796
:100C8000ACF403E00093450600E20093460600E062
:100C9000009347060FEF0093F80600E00093480624
:100CA00004E10093490600E000934A060090E30641
:100CB0001090E40601240092F1060090E3061090E3
:100CC000E30601200092E4060091F10600233AF4C5
:100CD00000E000935706009358060093590600E081
:100CE0000093400500E00093410501E000934205B8
:100CF0003091570640915806509159066091400531
:100D00007091410580914205580F471F361F30935F
:100D1000570640935806509359060DE70093400537
:100D200000E00093410500E0009342053091570632
:100D300040915806509159066091400570914105C7
:100D40008091420558174707360764F00091400527
:100D50000093570600914105009358060091420503
:100D6000009359060AE0009340050CEF00934105FB
:100D700000E8009342053091570640915806509183
:100D800059066091400570914105809142055817C0
:100D900047073607B4F130915A0640915B0641503F
:100DA000304030935A0640935B0600E000934005C4
:100DB000009341050093420530915A0640915B062D
:100DC00050915C066091400570914105809142050B
:100DD000581747073607ACF407E000935A0600EDB2
:100DE00000935B0600E000935C060FEF0093F806AB
:100DF00001E00093480600E90093490600E00093F3
:100E00004A060090F8061090F70601280092F106B5
:100E10000090F1061090FE0601280092F106009164
:100E2000F106002312F029980895299A08950F9346
:100E3000CF93299AC2E30E94EE3A2998CF910F915D
:100E40000895402F2A2F3B2F0E94963A01E00093ED
:100E5000B80604E00093B906203049F00AE3009395
:100E6000B40600E00093B50602E00E94B438022FF9
:100E70000B5F041749F00AE30093B40602E3009302
:100E8000B50603E00E94B43801E00093B90608E01B
:100E90000093B50615E0FE0104E1029FE00DF11D8F
:100EA00000E00093B406A4E105910E94B438AA952D
:100EB000D9F70090B50608E0000E0092B5061A9525
:100EC00079F708E0039F002D095F0093B506075FDF
:100ED0000093B70600E00093B4060FE70093B60650
:100EE00000E00093B8060E94CC3700E00093B406FF
:100EF00009E30093B506EF93FF93ECE8FFE00E944F
:100F0000AE38FF91EF910E94413AAEE10E94FC3A67
:100F1000003011F0AA95D1F70E94FC3A0030E1F3BD
:100F20000E941707083019F4AA2788942BC00430B0
:100F300061F4303019F03A950C94C507203019F05F
:100F40002A950C94C5070C94C507023071F434300F
:100F500019F033950C94C507042F0550201719F08C
:100F600023950C94C5070C94C507013071F40E94B9
:100F7000963A0E94413A0E94FC3A0030E1F7A22FD3
:100F8000A30F0894C22FD32F08955ECF4241434B45
:100F900020205550202020444F574E20454E544588
:100FA00052003091790540917A0550917B0560910E
:100FB0007C0570917D0580917E05581B470B360B93
:100FC000309391054093920550939305609191055C
:100FD000709192058091930508E00E94563B6093C2
:100FE0009105709392058093930530917C05409113
:100FF0007D0550917E0560919105709192058091DB
:101000009305580F471F361F30937C0540937D058D
:1010100050937E053091210640912206509123067F
:1010200060917C0570917D0580917E05581B470B72
:10103000360B3093910540939205509393050AF433
:1010400055C060919105709192058091930502E0E1
:101050000E94563B6093910570939205809393058F
:1010600000E00093400500E10093410500E000939B
:101070004205309191054091920550919305609100
:101080004005709141058091420558174707360782
:1010900064F0009140050093910500914105009393
:1010A0009205009142050093930530913C064091D2
:1010B0003D0650913E066091910570919205809198
:1010C0009305580F471F361F30933C0640933D064B
:1010D00050933E06B0913C06A0913D06D0913E064D
:1010E000AA2322F00FEF0093F7060895002700933C
:1010F000F70608950091E30600236AF130915D063A
:1011000040915E064150304030935D0640935E064C
:1011100000E00093400500934105009342053091A3
:101120005D0640915E0650915F06609140057091AA
:1011300041058091420558174707360764F40FEFC1
:101140000093E90601E000935D0600E900935E0666
:1011500000E000935F060090EA061090EC06012084
:101160000092F1060090EA0600940092F3060090C7
:10117000F3061090ED0601200092F2060090F106B1
:101180001090F20601280092EB060091E30600237E
:1011900012F02B9808952B9A089510916F062091C4
:1011A00070063091710640911B0650911C066091AB
:1011B0001D060E94653B7093400580934105209277
:1011C000420500911E060093120600911F0600932F
:1011D00013060091200600931406309140054091BB
:1011E000410550914205609112067091130680915D
:1011F000140658174707360764F00091120600934B
:1012000040050091130600934105009114060093D8
:1012100042056091120670911306809114065527BD
:1012200044273327581B470B360B30931206409345
:10123000130650931406309140054091410550919A
:10124000420560911206709113068091140658179A
:101250004707360764F40091120600934005009199
:101260001306009341050091140600934205309146
:101270004C0540914D0550914E056091400570918F
:10128000410580914205581B470B360B30934C05A6
:1012900040934D0550934E050895C2E4D3E1A091CB
:1012A000BD06B091BC0603E10E942107C093BD06B4
:1012B000D093BC0608F008950E94963A01E000938E
:1012C000B80601E00093B90604E10093B40609E111
:1012D0000093B506EF93FF93EEEBF4E10E94AE3876
:1012E000FF91EF9100E00093B40609E30093B50687
:1012F000EF93FF93ECECF4E10E94AE38FF91EF9195
:101300000E94413A0E940D3B013009F0C6CF299A54
:10131000E2EEF4E100E40A9FE00DF11DDF01C4E01C
:10132000D0E010E4FD010491FE010E944A3B1196B9
:1013300021961A95B9F729980E94B91B0E94BD0DF4
:10134000ACCF53696E676C65436F70746572203201
:101350004D203253202053696E676C65436F707463
:10136000657220314D20345320204475616C436FE9
:1013700070746572202020202020202020205472AC
:1013800069436F7074657220202020202020202067
:1013900020205936202020202020202020202020FE
:1013A00020202020202051756164726F436F70747B
:1013B0006572202B206D6F64652051756164726FBA
:1013C000436F707465722078206D6F6465205838A3
:1013D00020202020202020202020202B206D6F6422
:1013E0006520583820202020202020202020207810
:1013F000206D6F64652048657861436F7074657215
:101400002020202B206D6F64652048657861436F34
:101410007074657220202078206D6F6465204F63A2
:10142000746F436F707465722020202B206D6F6481
:1014300065204F63746F436F70746572202020784D
:10144000206D6F6465204836202020202020202039
:10145000202020202020202020204838202020204C
:101460002020202020202020202020202020563630
:10147000202020202020202020202020202020206C
:10148000202056382020202020202020202020200E
:1014900020202020202059342020202020202020FF
:1014A00020202020202020202020562D5461696CEF
:1014B00020202020202020202020202020204172B9
:1014C0006520796F7520737572653F0043414E4307
:1014D000454C20202020202020202020202059455D
:1014E000530064000064000300006400009C0003DB
:1014F00000000064000032000000000064003200C0
:1015000000000000000000000000000000000000DB
:1015100000000000000000000000000000000000CB
:10152000000064000000000300000064006432005A
:1015300000000000646432000000009C006432007F
:10154000000000009C643200000000000000000069
:10155000000000000000000000000000000000008B
:1015600000006464000000030000649C00000003AD
:101570000000000064640000000000009C640000A3
:10158000000000000000000000000000000000005B
:10159000000000000000000000000000000000004B
:1015A000000064A9320000030000645732FF00030A
:1015B000000064009C000003000000000064320092
:1015C000000000000000000000000000000000001B
:1015D000000000000000000000000000000000000B
:1015E000000064A932640003000064A9329C000377
:1015F000000064573264000300006457329C00030B
:10160000000064009C640003000064009C9C0003D4
:1016100000000000000000000000000000000000CA
:10162000000064006464000300006464009C000324
:10163000000064009C6400030000649C009C0003A4
:10164000000000000000000000000000000000009A
:10165000000000000000000000000000000000008A
:10166000000064B94764000300006447479C00031E
:1016700000006447B9640003000064B9B99C00032A
:10168000000000000000000000000000000000005A
:10169000000000000000000000000000000000004A
:1016A000000064006464000300006400649C0003A4
:1016B000000064640064000300006464009C000394
:1016C000000064009C640003000064009C9C000314
:1016D0000000649C006400030000649C009C000304
:1016E000000064B947640003000064B9479C00032C
:1016F000000064474764000300006447479C000300
:1017000000006447B964000300006447B99C00030B
:10171000000064B9B9640003000064B9B99C000317
:10172000000064006464000300006457329C0003FE
:1017300000006457CE640003000064009C9C00031A
:10174000000064A9CE640003000064A9329C000379
:101750000000000000000000000000000000000089
:10176000000064325764000300006464009C0003BE
:1017700000006432A9640003000064CEA99C000349
:101780000000649C00640003000064CE579C0003CA
:101790000000000000000000000000000000000049
:1017A000000064006464000300006447479C000379
:1017B000000064640064000300006447B99C0003F7
:1017C000000064009C640003000064B9B99C00033D
:1017D0000000649C00640003000064B9479C00039F
:1017E000000064265C6400030000645C269C000327
:1017F0000000645CDA64000300006426A49C00031B
:10180000000064DAA4640003000064A4DA9C00030E
:10181000000064A426640003000064DA5C9C0003FA
:10182000000064474764000300006447009C000315
:1018300000006447B9640003000064B9B99C000368
:10184000000064B900640003000064B9479C000311
:101850000000000000000000000000000000000088
:10186000000064474764000300006447189C0003BD
:1018700000006447E864000300006447B99C00036B
:10188000000064B9B9640003000064B9E89C000377
:10189000000064B918640003000064B9479C0003A9
:1018A000000064644764000300006447009C000378
:1018B0000000642AB9640003000064D6B99C0003E8
:1018C000000064B9006400030000649C479C0003AE
:1018D0000000000000000000000000000000000008
:1018E000000064644764000300006451189C000316
:1018F0000000643DE86400030000642AB99C000312
:10190000000064D6B9640003000064C3E89C0003CF
:10191000000064AF186400030000649C479C00034F
:10192000000064B94764000300006447479C00035B
:10193000000064009C640003000064009C9C0003A1
:101940000000000000000000000000000000000097
:101950000000000000000000000000000000000087
:10196000000064B9470000030000644747FF00031C
:1019700000007800A664000300007800A69C000325
:101980000000000000000000000000000000000057
:101990000000000000000000000000000000000047
:1019A00000000E94963A01E00093B80601E000931F
:1019B000B90600E00093B40601E00093B506EF938A
:1019C000FF93ECE0FBE10E94AE38FF91EF91E2E77C
:1019D000F0E00E94183B0E94533800E00093B406E8
:1019E0000090B50609E0000E0092B506EF93FF9354
:1019F000E6E1FBE10E94AE38FF91EF910E94183BB7
:101A00000E94533800E00093B4060090B5060CE045
:101A1000000E0092B506EF93FF93E0E2FBE10E9417
:101A2000AE38FF91EF910E94183B0E94533800E0BE
:101A30000093B4060090B50609E0000E0092B506CA
:101A4000EF93FF93E2E3FBE10E94AE38FF91EF9149
:101A50000E94183B0E94533800E00093B40609E34B
:101A60000093B506EF93FF93E4E4FBE10E94AE38E8
:101A7000FF91EF91EAE5FBE104E0019FE00DF11D2C
:101A800005910093B40605910093B5060591009366
:101A9000B60604910093B70600E00093B8060E94D2
:101AA000CC370E94413A0E940D3B083009F408955A
:101AB000043021F41A950AF413E073CF023029F4AC
:101AC0001395143009F410E06CCF0130F1F4E2E723
:101AD000F0E002E0019FE00DF11DEF93FF930E9403
:101AE000183BEAE6FBE104E0019FE00DF11DC59122
:101AF000D59105901590E02DF12D0E948B24A02DFD
:101B0000B12DFF91EF910E941F3B4BCF50204761B9
:101B1000696E20203A0050206C696D6974203A008B
:101B2000414343205472696D20526F6C6C20203AFF
:101B30000000414343205472696D2050697463680A
:101B4000203A00004241434B2050524556204E451A
:101B50005854204348414E47450035004F09350948
:101B60004F125F157F1E5F1E7F270000007D000063
:101B7000007D18FCE80318FCE80344240E94963A10
:101B800000E00093B40600E00093B50601E0009386
:101B9000B90601E00093B806EF93FF93EAE9FFE18D
:101BA0000E94AE38FF91EF914420A1F4EF93FF9390
:101BB000E2EAFFE10E94AE38FF91EF910FEF602E55
:101BC00008E0802E55240E941F0E53948A9488208A
:101BD000D1F709C0542C5A94A42DBB270E94533826
:101BE00066240E941F0E01E00093B90601E00093F5
:101BF000B80600E00093B40609E30093B506EF933E
:101C0000FF93EEEAFFE10E94AE38FF91EF910E9450
:101C1000413A0E940D3B083009F40895043031F434
:101C2000439409E0401609F44424A8CF023031F46B
:101C30004A94442012F408E0402EA0CF9FCFE0E069
:101C4000F5E008E0059DE00DF11D01E00093B80608
:101C50000FEF702EDD27A181BB27AA2312F4DFEF3F
:101C6000BFEFB093C705A093C805D093C90500E0A6
:101C70000093400500934105009342053091C7054C
:101C80004091C8055091C90560914005709141058A
:101C90008091420558174707360709F0772400E07E
:101CA0000093400500E00093410500E400934205E5
:101CB0001091C7052091C8053091C9054091400594
:101CC00050914105609142050E94653B7093C705A4
:101CD0008093C8052092C90500E00093400500E606
:101CE0000093410500E0009342053091C705409103
:101CF000C8055091C90560914005709141058091DA
:101D00004205580F471F361F3093C7054093C8053B
:101D10005093C905B091C705A091C805D091C905D8
:101D2000A093B406DD27A281BB27AA2312F4DFEF1C
:101D3000BFEFB093C705A093C805D093C90500E0D5
:101D40000093400500934105009342053091C7057B
:101D50004091C8055091C9056091400570914105B9
:101D60008091420558174707360709F077240FEF8F
:101D7000009340050FEF0093410500EC00934205EE
:101D80001091C7052091C8053091C90540914005C3
:101D900050914105609142050E94653B7093C705D3
:101DA0008093C8052092C90500E00093400500E239
:101DB0000093410500E0009342053091C705409132
:101DC000C8055091C9056091400570914105809109
:101DD0004205580F471F361F3093C7054093C8056B
:101DE0005093C905B091C705A091C805D091C90508
:101DF000A093B506DD27A081BB27AA2312F4DFEF4D
:101E0000BFEFB093C705A093C805D093C90500E004
:101E10000093400500934105009342053091C705AA
:101E20004091C8055091C9056091400570914105E8
:101E30008091420558174707360709F07724A38198
:101E4000AA2309F07724772092F466200AF40895F3
:101E500002E40093B4060BE10093B506EF93FF9301
:101E6000E2E9FFE10E94AE38FF91EF910895A5816C
:101E7000A0FD11C0662072F002E40093B4060BE1ED
:101E80000093B506EF93FF93E6EAFFE10E94AE38B8
:101E9000FF91EF91089500E60093B60600E20093EB
:101EA000B7060E946D390091B40604500093B40641
:101EB0000091B50607500093B50604E00093B906FB
:101EC00004E0A381AA230AF005E00E94B43800913F
:101ED000B4060E500093B4060090B50605E0000E5F
:101EE0000092B50600E00093B90600E00093B80642
:101EF000052D0E94B43866200AF44AC001E0009320
:101F0000B90601E00093B80600E00093B4060FE0C4
:101F10000093B506EF93FF93E2ECFFE10E94AE3829
:101F2000FF91EF9100E00093B40608E10093B5063D
:101F3000EF93FF93ECECFFE10E94AE38FF91EF913D
:101F400000E00093B40601E20093B506EF93FF931F
:101F5000E6EDFFE10E94AE38FF91EF9100E00093C3
:101F6000B4060AE20093B506A381AA234AF0EF93D0
:101F7000FF93EAEBFFE10E94AE38FF91EF9108C0BA
:101F8000EF93FF93EEEBFFE10E94AE38FF91EF91EC
:101F90000895556E757365642E004D6F746F723AB7
:101FA0002000414C4C00536572766F2E0000424178
:101FB000434B20204E4558540000435700004343F4
:101FC0005700446972656374696F6E007365656E6E
:101FD0002066726F6D0061626F76653A00000E9444
:101FE000963A01E00093B80601E00093B90602E0DA
:101FF0000093B40609E10093B506EF93FF93ECE17B
:10200000F2E20E94AE38FF91EF9100E00093B40637
:102010000E94413A00E00093DD0600E00093DE06F6
:1020200001E00093E00608E00093DF060FEF009365
:10203000E30600E00093420601E00093430600E05F
:10204000009344062B9A06E006BB0E94E32E0E94F2
:10205000FD3300270093E50600E00093400508ECFF
:102060000093410500E00093420530914C054091FA
:102070004D0550914E05609140057091410580914C
:102080004205581B470B360B3093400540934105E2
:102090005093420500E0009312060093130600934C
:1020A00014063091400540914105509142056091E0
:1020B00012067091130680911406581747073607C9
:1020C0003CF400E000934005009341050093420575
:1020D00000E00093120606E00093130600E0009370
:1020E0001406109140052091410530914205409120
:1020F000120650911306609114060E94653B70937E
:102100004005809341052092420500E000931206AD
:1021100008E5009313060CEC00931406309140057B
:10212000409141055091420560911206709113064D
:1021300080911406580F471F361F30934005409377
:10214000410550934205009140050093CA05009156
:1021500041050093CB05009142050093CC05009109
:1021600040050093CD05009141050093CE050091F7
:1021700042050093CF05009140050093D0050091E2
:1021800041050093D105009142050093D2050091CD
:1021900040050093D305009141050093D4050091BB
:1021A00042050093D505009140050093D6050091A6
:1021B00041050093D705009142050093D805009191
:1021C00040050093D905009141050093DA0500917F
:1021D00042050093DB05009140050093DC0500916A
:1021E00041050093DD05009142050093DE05009155
:1021F00040050093DF05009141050093E005009143
:1022000042050093E1050E94352F03B10095029528
:102210000F70093009F419CF2B98089554726F7418
:10222000746C6520706173732D7468726F75676864
:102230000000E0E0F0E00E94423B3196093181F479
:102240000E94423B3196033059F40E94423B319642
:10225000033731F40E94423B3196033009F408956C
:10226000A4E0B0E0CAEDD3E210E4FE010491FD0168
:102270000E944A3B119621961A95B9F7A4E4B0E062
:10228000CAE1D4E218E1FE010491FD010E944A3B3B
:10229000119621961A95B9F7A4E8B0E0C2E3D4E20A
:1022A00018E0FE010491FD010E944A3B119621961F
:1022B0001A95B9F7AAE0B0E0EAE7F0E00E941F3B08
:1022C000A4E2B0E0E0E7F0E00E941F3BA4E6B0E04B
:1022D000E2E7F0E00E941F3BA4E1B0E0E4E7F0E0B9
:1022E0000E941F3BA0E0B0E0ECE7F0E00E941F3B43
:1022F000AEE1B0E0EEE7F0E00E941F3BA0E0B0E00E
:10230000E0E8F0E00E941F3BA2E3B0E0E2E8F0E08A
:102310000E941F3BA0E0B0E0E6E7F0E00E941F3B18
:10232000A0E0B0E0E8E7F0E00E941F3BA1E0B0E0F1
:10233000ECE8F0E00E942A3BA2E0B0E0EDE8F0E03B
:102340000E942A3BA3E0B0E0EEE8F0E00E942A3BC6
:10235000A4E0B0E0EFE8F0E00E942A3BA5E0B0E0A6
:10236000E0E9F0E00E942A3B0FEFA02FE1E9F0E066
:102370000E942A3B0FEFA02FE2E9F0E00E942A3BE7
:102380000FEFA02FE3E9F0E00E942A3BAA27E5E93E
:10239000F0E00E942A3BAA27E4E9F0E00E942A3BF1
:1023A000E0E0F0E009E10E944A3B319603E00E9440
:1023B0004A3B319603E70E944A3B319603E00E9474
:1023C0004A3B319615E00E941707C0E00E94EE3AA2
:1023D0001A95C9F70E945B3608956400646400038F
:1023E00000006464009C0003000064009C6400031F
:1023F0000000649C009C000300000000000000003E
:1024000000000000000000000000000000000000CC
:10241000000000000000000000003200640019000D
:10242000140032006400190014003200140032005D
:102430000A001E001E0032005A000E94963A01E077
:102440000093B80601E00093B90600E00093B406DB
:1024500001E00093B506EF93FF93ECE6FAE20E94E9
:10246000AE38FF91EF9100E00093B4060090B506FE
:1024700009E0000E0092B506EF93FF93E2E8FAE25E
:102480000E94AE38FF91EF9100E00093B4060090F7
:10249000B50609E0000E0092B506EF93FF93E6E95A
:1024A000FAE20E94AE38FF91EF9100E00093B4068B
:1024B0000090B50609E0000E0092B506EF93FF9379
:1024C000E6EAFAE20E94AE38FF91EF9100E0009355
:1024D000B4060090B50609E0000E0092B506EF9331
:1024E000FF93ECEBFAE20E94AE38FF91EF9100E02F
:1024F0000093B4060090B50609E0000E0092B50600
:10250000EF93FF93EEECFAE20E94AE38FF91EF9169
:1025100000E00093B40609E30093B506EF93FF9340
:10252000E6E5FAE20E94AE38FF91EF910E94413A4F
:102530000E940D3B0130E1F7A5E3B0E00E94963A1E
:1025400000E00093B40601E00093B506EF93FF931B
:10255000E4EEFAE20E94AE38FF91EF9100E00093C2
:10256000B4060090B50609E0000E0092B506EF93A0
:10257000FF93E2EFFAE20E94AE38FF91EF9100E0A4
:102580000093B4060090B50609E0000E0092B5066F
:10259000EF93FF93E2E0FBE20E94AE38FF91EF91F0
:1025A00000E00093B4060090B50609E0000E00922A
:1025B000B506EF93FF93ECE0FBE20E94AE38FF918B
:1025C000EF9100E00093B4060090B50609E0000E1C
:1025D0000092B506EF93FF93EAE1FBE20E94AE386A
:1025E000FF91EF9100E00093B4060090B50609E07A
:1025F000000E0092B506EF93FF93E8E2FBE20E9423
:10260000AE38FF91EF9108E70093B40601E0009324
:10261000B5060A2F0E94B43805E50093B40609E018
:10262000B09F002D065F0093B506EF93FF93E6E39E
:10263000FBE20E94AE38FF91EF910E94413AD7E051
:10264000C0E00E94EE3ADA95D9F7B395B53009F0BB
:1026500075CFB0E0AA95AF3209F070CF0E94963ADC
:1026600009E10093B40609E10093B506EF93FF93E7
:10267000EAE3FBE20E94AE38FF91EF910E94413AFB
:10268000C0E00E94EE3AE0E100E0009370050093A4
:1026900071050093720500E00093730500937405C3
:1026A0000093750500E0009376050093770500938D
:1026B00078050E947D3730917005409171055091E9
:1026C0007205609167057091680580916905580FE2
:1026D000471F361F30937005409371055093720564
:1026E00030917305409174055091750560916A05AC
:1026F00070916B0580916C05580F471F361F309302
:10270000730540937405509375053091760540919B
:1027100077055091780560916D0570916E058091F7
:102720006F05580F471F361F309376054093770586
:1027300050937805C4E60E94EE3AEA9509F0B9CFC5
:1027400060917005709171058091720504E00E949E
:10275000563B60937005709371058093720560918C
:102760007305709174058091750504E00E94563BD5
:102770006093730570937405809375056091760579
:10278000709177058091780504E00E94563B609334
:1027900076057093770580937805D8E2C0E00E94B3
:1027A000EE3ADA95D9F70E94963A0FEF0093F006C9
:1027B00000E00093B4060AE00093B506EF93FF93A0
:1027C000EAECFEE60E94AE38FF91EF91B091700501
:1027D000A0917105D09172050E9453380E94343740
:1027E00000E00093B40603E10093B506EF93FF9376
:1027F000E4EDFEE60E94AE38FF91EF91B0917305D3
:10280000A0917405D09175050E9453380E94343709
:1028100000E00093B4060CE10093B506EF93FF933C
:10282000EEEDFEE60E94AE38FF91EF91B091760595
:10283000A0917705D09178050E9453380E943437D3
:1028400000E00093B40609E30093B506EF93FF930D
:10285000E6E5FAE20E94AE38FF91EF910E94413A1C
:102860000091F006002322F5EDE5F0E0B09170054F
:10287000A0917105D09172050E94383BB09173050B
:10288000A0917405D09175050E94383BB0917605F2
:10289000A0917705D09178050E94383BE5E9F0E0FA
:1028A0000FEF002F0E944A3B00E00093F90608C09A
:1028B000E5E9F0E000270E944A3B01E00093F906B9
:1028C0000E940D3B0130E1F70E94963A0091F0061C
:1028D00000230AF40FC000E00093B40609E100935E
:1028E000B506EF93FF93EAE4FBE20E94AE38FF9156
:1028F000EF910EC000E00093B40609E10093B50625
:10290000EF93FF93EEE5FBE20E94AE38FF91EF916B
:1029100000E00093B40609E30093B506EF93FF933C
:10292000E6E5FAE20E94AE38FF91EF910E94413A4B
:102930000E940D3B0130E1F70895E0E100E00093D3
:102940005E0500935F050093600500E0009361055C
:10295000009362050093630500E000936405009313
:102960006505009366050E947D3730915E054091B4
:102970005F055091600560915505709156058091F5
:102980005705580F471F361F30935E0540935F056C
:102990005093600530916105409162055091630547
:1029A000609158057091590580915A05580F471F3D
:1029B000361F309361054093620550936305309153
:1029C0006405409165055091660560915B057091C5
:1029D0005C0580915D05580F471F361F30936405D5
:1029E0004093650550936605C4E60E94EE3AEA9569
:1029F00009F0B9CF60915E0570915F058091600527
:102A000004E00E94563B60935E0570935F058093DF
:102A1000600560916105709162058091630504E035
:102A20000E94563B60936105709362058093630535
:102A300060916405709165058091660504E00E94CF
:102A4000563B6093640570936505809366050FEFB0
:102A50000093FF0608952020202020202020202001
:102A6000202020434F4E54494E554500506C616321
:102A70006520746865206169726372616674206F95
:102A80006E0061206C6576656C207375726661639B
:102A90006520616E6400707265737320434F4E54FD
:102AA000494E55452E005468652046432077696C91
:102AB0006C207468656E20776169740035207365D9
:102AC0006320746F206C6574207468650000616910
:102AD00072637261667420736574746C6520646FD0
:102AE000776E2E0020202020206C64612023243368
:102AF00035006C6F6C3A20737461202430343237A7
:102B0000000020202020207365630000202020206A
:102B10002073626320232430310020202020206392
:102B20006D702023243266002020202020626E65F4
:102B3000206C6F6C00003C2D2D0043616C6962724B
:102B40006174696E672E2E2E000043616C6962729B
:102B50006174696F6E206661696C65642E00436103
:102B60006C6962726174696F6E2073756363656509
:102B7000646564000E94963A01E00093B80601E0A3
:102B80000093B90600E00093B40601E00093B50697
:102B9000EF93FF93ECE3FDE20E94AE38FF91EF91DB
:102BA000E1E9F0E00E94263BAA234AF4EF93FF9369
:102BB000E8E9FDE20E94AE38FF91EF9108C0EF9383
:102BC000FF93EEE9FDE20E94AE38FF91EF9100E045
:102BD0000093B4060AE00093B506EF93FF93ECE48C
:102BE000FDE20E94AE38FF91EF910E94263BAA239E
:102BF0004AF4EF93FF93E2EAFDE20E94AE38FF91C0
:102C0000EF9108C0EF93FF93E6EAFDE20E94AE3831
:102C1000FF91EF9100E00093B40603E10093B50645
:102C2000EF93FF93EEE5FDE20E94AE38FF91EF9146
:102C30000E94263BAA234AF4EF93FF93E2EAFDE2C7
:102C40000E94AE38FF91EF9108C0EF93FF93E6EA40
:102C5000FDE20E94AE38FF91EF9100E00093B406D0
:102C60000CE10093B506EF93FF93EEE6FDE20E94C0
:102C7000AE38FF91EF910E94263BAA234AF4EF93CE
:102C8000FF93E2EAFDE20E94AE38FF91EF9108C0A7
:102C9000EF93FF93E6EAFDE20E94AE38FF91EF91D9
:102CA00000E00093B40609E30093B506EF93FF93A9
:102CB000EEE7FDE20E94AE38FF91EF91EAEAFDE215
:102CC00004E0019FE00DF11D05910093B40605910C
:102CD0000093B50605910093B60604910093B706DC
:102CE00000E00093B8060E94CC370E94413A0E944F
:102CF0000D3B083009F40895043021F41A950AF4C4
:102D000013E038CF023029F41395143009F410E0A1
:102D100031CF013091F4E1E9F0E001E0019FE00DF5
:102D2000F11D0E94263B00E8A027E1E9F0E001E068
:102D3000019FE00DF11D0E942A3B1CCF53656C667C
:102D40002D4C6576656C20203A2000004C696E6B36
:102D500020526F6C6C2050697463683A2000417592
:102D6000746F2044697361726D203A2000004350F3
:102D7000504D20456E61626C65643A20000042410E
:102D8000434B2050524556204E455854204348410D
:102D90004E4745004F6E0000537469636B00415508
:102DA0005800596573004E6F0000530072096409A2
:102DB0007A125312681B531B68240E94963A01E052
:102DC0000093B80601E00093B90600E00093B40652
:102DD00001E00093B506EF93FF93E6E3FFE20E9464
:102DE000AE38FF91EF91EAE7F0E00E94183B0E94B5
:102DF000533800E00093B4060AE00093B506EF9361
:102E0000FF93E8E4FFE20E94AE38FF91EF910E9449
:102E1000183B0E94533800E00093B40603E100938E
:102E2000B506EF93FF93EAE5FFE20E94AE38FF910B
:102E3000EF910E94183B0E94533800E00093B406C3
:102E40000CE10093B506EF93FF93ECE6FFE20E94DE
:102E5000AE38FF91EF910E94183B0E94533800E07A
:102E60000093B40605E20093B506EF93FF93EEE7F7
:102E7000FFE20E94AE38FF91EF910E94183B0E9442
:102E8000533800E00093B40609E30093B506EF93CE
:102E9000FF93E0E9FFE20E94AE38FF91EF91E6EA8E
:102EA000FFE204E0019FE00DF11D05910093B406DF
:102EB00005910093B50605910093B6060491009321
:102EC000B70600E00093B8060E94CC370E94413A52
:102ED0000E940D3B083009F40895043021F41A953E
:102EE0000AF414E06ACF023029F41395153009F47E
:102EF00010E063CF0130F1F4EAE7F0E002E0019F77
:102F0000E00DF11DEF93FF930E94183BEAEBFFE207
:102F100004E0019FE00DF11DC591D591059015903C
:102F2000E02DF12D0E948B24A02DB12DFF91EF916A
:102F30000E941F3B42CF4D696E696D756D207468AC
:102F4000726F74746C653A004865696768742044F0
:102F5000616D70656E696E673A004865696768748F
:102F600020442E204C696D6974203A00416C6172D6
:102F70006D20312F313020766F6C74733A005365B9
:102F800072766F2066696C746572202020203A008A
:102F90004241434B2050524556204E455854204301
:102FA00048414E47450065007F0965097F1265125B
:102FB0007F1B651B7F2465247F2D0000140000000B
:102FC000F40100001E000000007D000064000E946B
:102FD000963A01E00093B80601E00093B90600E0DC
:102FE0000093B40601E00093B506EF93FF93E6E388
:102FF000F1E30E94AE38FF91EF9100E00093B40638
:103000000EE00093B506EF93FF93E4E4F1E30E9432
:10301000AE38FF91EF91E4E8F0E00E94183B0E9487
:10302000533800E00093B40607E10093B506EF9330
:10303000FF93E2E5F1E30E94AE38FF91EF910E9429
:10304000183B0E94533800E00093B40600E200935E
:10305000B506EF93FF93E0E6F1E30E94AE38FF91EF
:10306000EF910E94183B0E94533800E00093B40691
:1030700009E20093B506EF93FF93EEE6F1E30E94B9
:10308000AE38FF91EF910E94183B0E94533800E048
:103090000093B40609E30093B506EF93FF93ECE7C2
:1030A000F1E30E94AE38FF91EF91E2E9F1E304E031
:1030B000019FE00DF11D05910093B4060591009369
:1030C000B50605910093B60604910093B70600E09B
:1030D0000093B8060E94CC370E94413A0E940D3BF3
:1030E000083009F40895043021F41A950AF413E025
:1030F0006ECF023029F41395143009F410E067CF35
:103100000130C1F4E4E8F0E002E0019FE00DF11DC0
:103110000E94183BC0E0D0E0E0E0FDE70E948B2475
:10312000A02DB12DE4E8F0E002E0019FE00DF11DDB
:103130000E941F3B4CCF537469636B205363616CD7
:10314000696E6700526F6C6C202841696C292020E1
:103150003A0050697463682028456C6529203A005C
:103160005961772028527564292020203A0054683C
:10317000726F74746C65202020203A004241434BEA
:103180002050524556204E455854204348414E4702
:1031900045004D0D6E164D166E1F4D1F6E284D28A5
:1031A0006E310FEF0093FC060E94963A01E0009307
:1031B000B80603E00093B9060091E30600237AF411
:1031C00002E20093B40606E10093B506EF93FF9385
:1031D000EAE2F4E30E94AE38FF91EF910EC006E2FE
:1031E0000093B40600E00093B506EF93FF93E4E28A
:1031F000F4E30E94AE38FF91EF910091E3060023C3
:103200008AF000E00093B40609E30093B50601E0FC
:103210000093B906EF93FF93EEE0F4E30E94AE381B
:10322000FF91EF910091E30600230AF4EAC000E069
:103230000093B40601E10093B50601E00093B906DE
:10324000EF93FF93E0E3F4E30E94AE38FF91EF9138
:103250000091EB0600234AF0EF93FF93E4E4F4E3DC
:103260000E94AE38FF91EF9108C0EF93FF93E0E426
:10327000F4E30E94AE38FF91EF9100E00093B406B2
:103280000BE10093B506E0E1F5E30091F906000FCC
:10329000E00F0027F01FA591B491FD010E94AE3808
:1032A00000E00093400506E00093410500EE009326
:1032B00042051091790520917A0530917B05409166
:1032C000400550914105609142050E94653B709315
:1032D0004005809341052092420560914005709120
:1032E00041058091420508E00E94563B60934005ED
:1032F000709341058093420500E00093B40604E218
:103300000093B50601E00093B906EF93FF93E8E45C
:10331000F4E30E94AE38FF91EF91B0914005A09187
:103320004105D09142050E9453380EE20E94B43804
:10333000AD2FBB27B0934005A0934105D093420524
:1033400000E00093120600E0009313060AE00093E9
:10335000140610914005209141053091420540919D
:10336000120650911306609114060E94653B7093FB
:1033700040058093410520924205B0914005A091FF
:103380004105D09142050E945338EF93FF93E2E547
:10339000F4E30E94AE38FF91EF9100E00093B40691
:1033A0000DE20093B506EF93FF93E6E5F4E30E9488
:1033B000AE38FF91EF91B0916006A0916106D09177
:1033C00062060091FF06002312F40E94533800E0C9
:1033D0000093B40606E30093B506EF93FF93E4E68B
:1033E000F4E30E94AE38FF91EF91B0916306A09193
:1033F0006406D09165060091FF06002312F40E9436
:1034000053380E94413A00270093FC06089520207B
:103410002020202020202020202020202020204D7F
:10342000454E5500403A3D3C00003A3F3E3C3B0093
:1034300053656C662D6C6576656C206973200000A1
:103440004F4E00004F464600426174746572793AEF
:1034500020002056000020526F6C6C20416E676C7B
:10346000653A0000506974636820416E676C653A84
:1034700000004F4B2E00414343206E6F7420636168
:103480006C696272617465642E2020004572726FEF
:10349000723A206E6F20526F6C6C20696E7075747A
:1034A0002E004572726F723A206E6F2050697463FD
:1034B0006820696E707574004572726F723A206E82
:1034C0006F205468726F20696E7075742E0045729B
:1034D000726F723A206E6F2059617720696E707535
:1034E000742E20004572726F723A206E6F20415523
:1034F0005820696E7075742E20004572726F723A92
:103500002053616E69747920636865636B2E2000B7
:10351000723476348C34A234B834CE34E434FA3491
:103520000090E5061090FB0601200092F106009045
:10353000F1061090E30601200092F1060091F106D9
:10354000002342F000E000935106009352060093DE
:10355000530633C0309151064091520601E0400FAE
:103560000027301F30935106409352060FE100931D
:10357000400500E40093410500E0009342053091CE
:10358000510640915206509153066091400570914A
:1035900041058091420558174707360771F400E04E
:1035A00000935106009352060093530600270093A0
:1035B000E3060FEF0093E90608950091E506002366
:1035C00092F50EEF009340050CE00093410500E0FA
:1035D0000093420530914F0540915005509151059F
:1035E0006091400570914105809142055817470749
:1035F0003607ECF001E00093400504EF009341052D
:1036000000E00093420530914F05409150055091E4
:103610005105609140057091410580914205581710
:103620004707360724F400E00093E606089500916A
:10363000E60603950093E6060091E6060F3F09F0C3
:1036400097C0B0914F05A0915005D0915105BB2373
:1036500092F50091F906003009F008950FEF0093FC
:10366000E30601E0009348060CE20093490600E0FF
:1036700000934A060E949D1400E000937E0600938A
:103680007F06009380060093810600E00093820687
:1036900000938306009384060093850601E000935F
:1036A000860600E00093870600E00093880600E0AD
:1036B000009389060CC000270093E30600E0009306
:1036C000480606E90093490600E000934A060FEF1A
:1036D0000093F8060FEF0093E90603E00093450618
:1036E00000E20093460600E00093470600E00093E6
:1036F0005106009352060093530601E000934005E3
:1037000004EF0093410500E0009342053091460527
:1037100040914705509148056091400570914105E1
:1037200080914205581747073607D4F40EEF0093EF
:1037300040050CE00093410500E000934205309104
:1037400046054091470550914805609140057091AC
:103750004105809142055817470736072CF008C0ED
:103760000FEF0093EC0604C000270093EC0600C0A6
:10377000089510E4A0E0B5E0E4E0F0E00E94423BF0
:103780000D9331961A95D1F7E4E4F0E00E94FE1E05
:103790000091400500939405009141050093950523
:1037A00000914205009396050E94FE1E0E940E1F86
:1037B0000091400500939D050091410500939E05F1
:1037C0000091420500939F050E94FE1E0E94EE1E7E
:1037D000009140050093A605009141050093A705BF
:1037E000009142050093A8050E94FE1E0E940E1F34
:1037F000009140050093AF05009141050093B0058D
:10380000009142050093B1050E94FE1E0091400503
:10381000009397050091410500939805009142059A
:10382000009399050E94FE1E0E940E1F0091400504
:103830000093A005009141050093A1050091420568
:103840000093A2050E94FE1E0E94EE1E00914005FC
:103850000093A905009141050093AA050091420536
:103860000093AB050E94FE1E0E940E1F00914005B2
:103870000093B205009141050093B3050091420504
:103880000093B4050E94FE1E0091400500939A0526
:103890000091410500939B050091420500939C0512
:1038A0000E94FE1E0E940E1F009140050093A3057A
:1038B000009141050093A405009142050093A505E0
:1038C0000E94FE1E0E94EE1E009140050093AC0572
:1038D000009141050093AD05009142050093AE05AE
:1038E0000E94FE1E0E940E1F009140050093B50528
:1038F000009141050093B605009142050093B7057C
:1039000018E0E0E0F5E00581889401FD0894A795B2
:10391000889400FD0894B79538961A95A1F7A0935E
:10392000DD06B093DE0608E0009340050CEA009344
:10393000410500E00093420500E00093F406EF9398
:10394000FF93309140054091410550914205E2EED0
:10395000F5E06091F40603E0609FE00DF11D319306
:1039600041935193FF91EF910091F40603950093D9
:10397000F4060091F406083011F7EAE7F0E00E943F
:10398000FE1E00E0009312060CE20093130606E60A
:103990000093140610914005209141053091420595
:1039A0004091120650911306609114060E94653BE7
:1039B0007093B8058093B9052092BA05E4E8F0E069
:1039C0000E94FE1E0E94EE1E009140050093BB0562
:1039D000009141050093BC05009142050093BD058F
:1039E000E6E8F0E00E94FE1E0E94EE1E00914005F7
:1039F0000093BE05009141050093BF05009142056B
:103A00000093C005E8E8F0E00E94FE1E0E94EE1E52
:103A1000009140050093C105009141050093C20546
:103A2000009142050093C305EAE8F0E00E94FE1E03
:103A30000E94EE1E009140050093C40500914105CF
:103A40000093C505009142050093C605E2E8F0E049
:103A50000E94FE1E00E00093120604E60093130687
:103A600000E0009314063091120640911306509125
:103A70001406609140057091410580914205581BE4
:103A8000470B360B3093420640934306509344064F
:103A900060914206709143068091440607E00E94BF
:103AA000563B609342067093430680934406E2E7D8
:103AB000F0E00E94FE1E0091400500931506009163
:103AC0004105009316060091420500931706E4E7AE
:103AD000F0E00E94FE1E00E0009312060AE0009350
:103AE000130600E000931406109140052091410553
:103AF00030914205409112065091130660911406D0
:103B00000E94653B709318068093190620921A064E
:103B1000ECE7F0E00E94FE1E0091400500931B06BA
:103B20000091410500931C060091420500931D067B
:103B3000EEE7F0E00E94FE1E0E940E1F009140057D
:103B400000931E060091410500931F060091420557
:103B500000932006E0E8F0E00E94FE1E00E00093E3
:103B6000120603E00093130609EB0093140610916C
:103B70004005209141053091420540911206509137
:103B80001306609114060E94653B70932106809392
:103B9000220620922306E6E7F0E00E94FE1E6091D6
:103BA0004005709141058091420503E00E94563B1B
:103BB0006093400570934105809342050091400554
:103BC00000934B060091410500934C06009142057D
:103BD00000934D06E8E7F0E00E94FE1E609140056C
:103BE000709141058091420503E00E94563B60932D
:103BF0004005709341058093420500914005009374
:103C00004E060091410500934F0600914205009336
:103C10005006EDE5F0E00E942E3BB0937005A093B6
:103C20007105D09372050E942E3BB0937305A0934B
:103C30007405D09375050E942E3BB0937605A09332
:103C40007705D0937805E1E9F0E00E94423B0093CC
:103C5000EA06E2E9F0E00E94423B0093E106E3E974
:103C6000F0E00E94423B0093FB06E4E9F0E00E9492
:103C7000423B0093FD0601E00093E00605E000935F
:103C8000DF060FEF0093E90600270093FC060027EC
:103C90000093E30600270093E4060AEF0093DC0696
:103CA00000E00093EF0600E000934605009347050F
:103CB0000093480500E00093490500934A050093EE
:103CC0004B0500E000934F0500935005009351050C
:103CD00000E000934C0500934D0500934E0500E075
:103CE00000935205009353050093540500E00093A0
:103CF0005106009352060093530603E000937C059F
:103D00000FEF00937D0500E000937E0500E0009337
:103D100048060093490600934A0600E000934506D2
:103D2000009346060093470600E000935706009371
:103D300058060093590600E000935A0600935B066C
:103D400000935C0600270093F80600270093F7060F
:103D500000270093FE0600270093FF0600E0009373
:103D60005D0600935E0600935F0600E000937E060A
:103D700000937F06009380060093810600E0009385
:103D8000820600938306009384060093850601E073
:103D90000093860600E00093870600E00093880603
:103DA00000E00093890600E000936006009361063E
:103DB0000093620600E0009363060093640600939C
:103DC0006506E5E9F0E00E94423B002322F001E0B5
:103DD0000093F90608950E942C1F089560914005F4
:103DE000709141058091420504E00E94563B60932A
:103DF0004005709341058093420508950E94423B1F
:103E00003196A02F0E94423B3196B02FDD27B09310
:103E10004005A0934105D0934205089500E000932A
:103E2000120601E70093130609EA009314061091A5
:103E30004005209141053091420540911206509174
:103E40001306609114060E94653B709340058093B1
:103E500041052092420508950E94963A01E00093A0
:103E6000B80601E00093B906B091B805A091B90574
:103E7000D091BA05C0E0D0E0E8E7F3E00E949D20D1
:103E800008F4C9C0B0911B06A0911C06D0911D0674
:103E9000C0E0D0E0E5EFF1E00E949D2008F4BBC057
:103EA000B0911E06A0911F06D0912006C0E0D0E080
:103EB000E3E5FDE00E949D2008F4ADC0B0915E05F1
:103EC000A0915F05D0916005C4EFD1E0E6E7F2E094
:103ED0000E949D2008F4BCC0B0916105A0916205CC
:103EE000D0916305C4EFD1E0E6E7F2E00E949D20A7
:103EF00008F4AEC0B0916405A0916505D091660547
:103F0000C4EFD1E0E6E7F2E00E949D2008F4A0C0F3
:103F1000B0917005A0917105D0917205C2ECD1E00D
:103F2000E2E5F3E00E949D2008F492C0B091730591
:103F3000A0917405D0917505C2ECD1E0E2E5F3E003
:103F40000E949D2008F484C0B0917605A091770569
:103F5000D0917805C2ECD1E0E2E5F3E00E949D202B
:103F600008F476C00E947D370E947D37B0915505D8
:103F7000A0915605D0915705C4E6D0E0E4E8F3E0FF
:103F80000E949D2008F481C0B0915805A091590568
:103F9000D0915A05C4E6D0E0E4E8F3E00E949D2009
:103FA00008F473C0B0915B05A0915C05D0915D05EC
:103FB000C4E6D0E0E4E8F3E00E949D2008F465C088
:103FC000B0916705A0916805D0916905C4E6D0E07D
:103FD000E4E8F3E00E949D2008F457C0B0916A0520
:103FE000A0916B05D0916C05C4E6D0E0E4E8F3E065
:103FF0000E949D2008F449C0B0916D05A0916E0506
:10400000D0916F05C4E6D0E0E4E8F3E00E949D2083
:1040100008F43BC0089500E00093B4060FE000935D
:10402000B506EF93FF93EEE4F1E40E94AE38FF9102
:10403000EF9100E00093B40608E10093B506EF931A
:10404000FF93E2E6F1E40E94AE38FF91EF9139C0B0
:1040500000E00093B4060FE00093B506EF93FF93E2
:10406000E4EAF1E40E94AE38FF91EF9100E00093A2
:10407000B40608E10093B506EF93FF93E8EBF1E493
:104080000E94AE38FF91EF911CC000E00093B4068F
:104090000FE00093B506EF93FF93ECECF1E40E9480
:1040A000AE38FF91EF9100E00093B40608E1009371
:1040B000B506EF93FF93E8EBF1E40E94AE38FF9171
:1040C000EF9107E00093F90600E00093B40608E2E0
:1040D0000093B506EF93FF93E8E7F1E40E94AE3852
:1040E000FF91EF9103E20093B40601E00093B5065F
:1040F000EF93FF93ECEDF1E40E94AE38FF91EF9166
:1041000000E00093B40609E30093B506EF93FF9334
:10411000EEE8F1E40E94AE38FF91EF910E94413A3F
:10412000299AD7E2C0E00E94EE3ADA95D9F72998A9
:104130000E940D3B0130E1F70895AC17BD072CF04C
:10414000AE17BF0714F488940895089408954F6E2D
:1041500065206F72206D6F72652073657474696E6F
:1041600067006973206F757473696465206974737F
:10417000206C696D69747300436865636B20796FA7
:1041800075722073657474696E67732E0000202049
:104190002020202020202020202020434F4E544942
:1041A0004E55450053656E736F722063616C696292
:1041B000726174696F6E000064617461206F757460
:1041C000206F66206C696D6974732E0053656E7381
:1041D0006F72207261772064617461005741524EA2
:1041E000494E472100000E94963A01E00093B8062C
:1041F00001E00093B90600E00093B40600E00093EC
:10420000B506EF93FF93E2E6F5E40E94AE38FF9126
:10421000EF91B0915E05A0915F05D09160050E947D
:10422000533800E00093B4060090B50608E0000E95
:104230000092B506EF93FF93E2E7F5E40E94AE38F3
:10424000FF91EF91B0916105A0916205D091630556
:104250000E94533800E00093B4060090B50608E0D1
:10426000000E0092B506EF93FF93E2E8F5E40E949A
:10427000AE38FF91EF91B0916405A0916505D091A2
:1042800066050E94533800E00093B4060090B5061E
:1042900008E0000E0092B506EF93FF93E0E9F5E425
:1042A0000E94AE38FF91EF91B0917005A091710519
:1042B000D09172050E94533800E00093B40600903C
:1042C000B50608E0000E0092B506EF93FF93ECE907
:1042D000F5E40E94AE38FF91EF91B0917305A09183
:1042E0007405D09175050E94533800E00093B40620
:1042F0000090B50608E0000E0092B506EF93FF931C
:10430000E8EAF5E40E94AE38FF91EF91B0917605AE
:10431000A0917705D09178050E94533800E0009372
:10432000B4060090B50608E0000E0092B506EF93C3
:10433000FF93E4EBF5E40E94AE38FF91EF91B0916A
:10434000B805A091B905D091BA050E94533800E094
:104350000093B4060090B50608E0000E0092B50682
:10436000EF93FF93E2ECF5E40E94AE38FF91EF91FA
:10437000B0912106A0912206D09123060E945338C5
:104380000E94413A0E940D3B0E94963A00E0009341
:10439000B40600E00093B506EF93FF93E4EDF5E477
:1043A0000E94AE38FF91EF9100E00093400504E6D3
:1043B0000093410500E000934205109140052091D3
:1043C000410530914205409142065091430660916B
:1043D00044060E94653B70934005809341052092FE
:1043E0004205B0914005A0914105D09142050E943F
:1043F000533800E00093B4060090B50608E0000EC4
:104400000092B506EF93FF93E2EEF5E40E94AE381A
:10441000FF91EF91B0917E06A0917F06D09180062A
:10442000C09181060BD100E00093B4060090B50660
:1044300008E0000E0092B506EF93FF93ECEEF5E472
:104440000E94AE38FF91EF91B0918206A091830651
:10445000D0918406C0918506F1D000E00093B406A7
:104460000090B50608E0000E0092B506EF93FF93AA
:10447000E6EFF5E40E94AE38FF91EF91B091860629
:10448000A0918706D0918806C0918906D7D000E018
:104490000093B4060090B50608E0000E0092B50641
:1044A000EF93FF93E0E0F6E40E94AE38FF91EF91C6
:1044B000B0912406A0912506D09126060E9453387B
:1044C00000E00093B4060090B50608E0000E0092EC
:1044D000B506EF93FF93E0E1F6E40E94AE38FF915A
:1044E000EF91B0912706A0912806D09129060E944D
:1044F000533800E00093B4060090B50608E0000EC3
:104500000092B506EF93FF93E0E2F6E40E94AE3826
:10451000FF91EF91B0917905A0917A05D0917B053B
:104520000E94533800E00093B4060090B50608E0FE
:10453000000E0092B506EF93FF93E0E3F6E40E94CD
:10454000AE38FF91EF91B0918A06A0918B06D09181
:104550008C06C0918D0672D00E94413A0E940D3B9C
:1045600008954779726F526F6C6C5A65726F3A207A
:1045700000004779726F50697463685A65726F3AC8
:1045800020004779726F5961775A65726F3A20003F
:10459000416363585A65726F3A2000004163635962
:1045A0005A65726F3A2000004163635A5A65726F10
:1045B0003A2000004573634C6F774C696D69743A1B
:1045C000200042617474416C61726D566F6C74614D
:1045D00067653A00536572766F46696C7465723A26
:1045E0002000566563746F72583A200056656374F4
:1045F0006F72593A2000566563746F725A3A200000
:10460000416363416E676C65526F6C6C3A200000C9
:10461000416363416E676C6550697463683A20005A
:1046200042617474657279566F6C746167653A00A3
:10463000566563746F724C656E3A20000B2F07D07D
:104640000A2F05D00D2F03D00C2F01D00895EF9322
:10465000FF930F9302950F7006D00F910F7003D048
:10466000FF91EF910895E8E7F6E4E00F0027F01FCF
:1046700004910E94B43808953031323334353637DE
:104680003839414243444546112722270E94963A31
:1046900001E00093B80601E00093B90600E0009342
:1046A000B40601E00093B506EF93FF93E0E6F8E46B
:1046B0000E94AE38FF91EF91A22FAA954AF4EF9392
:1046C000FF93EEE8F8E40E94AE38FF91EF9113C03B
:1046D000AA954AF4EF93FF93EEE9F8E40E94AE380E
:1046E000FF91EF9108C0EF93FF93E0EBF8E40E9495
:1046F000AE38FF91EF9100E00093B4060EE0009316
:10470000B506EF93FF93E6E6F8E40E94AE38FF911A
:10471000EF9130E0DFD00E94533800E00093B40600
:104720000090B50609E0000E0092B506EF93FF93E6
:10473000E0E7F8E40E94AE38FF91EF9131E0CAD093
:104740000E94533800E00093B4060090B5060BE0D9
:10475000000E0092B506EF93FF93EAE7F8E40E949B
:10476000AE38FF91EF9132E0B5D00E94533800E0AF
:104770000093B4060090B50609E0000E0092B5065D
:10478000EF93FF93E4E8F8E40E94AE38FF91EF91D5
:1047900033E0A0D00E94533800E00093B40609E350
:1047A0000093B506EF93FF93EEEBF8E40E94AE386A
:1047B000FF91EF91ECE4F8E404E0019FE00DF11DBE
:1047C00005910093B40605910093B50605910093F9
:1047D000B60604910093B70600E00093B8060E9465
:1047E000CC370E94413A0E940D3B083009F40895ED
:1047F000043021F41A950AF414E048CF023029F469
:104800001395153009F410E041CF0130F1F4103068
:1048100029F42395233009F4222738CF312F3A95F4
:1048200059D0C0E0D0E0E0E0FDE70E948B24A02D4D
:10483000B12D59D0223049F00091E10600232AF42D
:104840002F9301E020274FD02F9120CF1D007F0A0A
:10485000340D56163416561F3421562A342A563330
:10486000417869733A0050204761696E203A200010
:1048700050204C696D69743A200049204761696E87
:10488000203A200049204C696D69743A2000526F2B
:104890006C6C202841696C65726F6E29000050694C
:1048A0007463682028456C657661746F7229000016
:1048B000596177202852756464657229000042416D
:1048C000434B2050524556204E45585420434841B2
:1048D0004E47450011D00E94423BA02F31960E94C6
:1048E000423BB02F089508D00A2F0E944A3B3196D0
:1048F0000B2F0E944A3B0895E4E4F0E0022F000FE2
:10490000000F000FE00F0027F01F032F000FE00F34
:104910000027F01F08952F923F924F925F926F925F
:104920007F928F921F932F933F934F935F936F9339
:104930007F938F939F93AF93BF93CF93DF93EF9327
:10494000FF9311E002E00093B80601E00093B9067E
:1049500000E00093B40608E30093B5060FE7009368
:10496000B60600E40093B7060E94CC3701E000933E
:10497000B80600E00093B40609E30093B506EF9390
:10498000FF93EAE9FAE40E94AE38FF91EF910EE15D
:104990000093B40603E10093B50602E60093B60661
:1049A0000AE20093B70602E00093B8060E94CC37F3
:1049B0000EE10093B40603E10093B50602E600930E
:1049C000B6060AE20093B70601E00093B8060E941B
:1049D00008380FE10093B40604E10093B50601E640
:1049E0000093B60609E20093B7060E94083802E277
:1049F0000093B40608E10093B50603E00093B906FE
:104A00000E9453380E94413A2EE10E94FC3A003045
:104A100011F02A95D1F7003009F411E00E94FC3A18
:104A20000030C9F30E941707083019F4A0E0B0E085
:104A3000AECF043061F4A11B0027B00BAC17BD074B
:104A40000CF4DE0113951F3F08F01FEFA0CF0230DA
:104A500041F4A10F0027B01FAE17BF070CF0DF0114
:104A6000F1CF0130C9F40A2E1B2EFF91EF91DF9197
:104A7000CF91BF91AF919F918F917F916F915F91F6
:104A80004F913F912F911F918F907F906F905F90EA
:104A90004F903F902F9008957ACF434C522020445E
:104AA0004F574E2020205550202020444F4E450087
:104AB00010E022270E94963A01E00093B80601E038
:104AC0000093B90606E60093B40601E00093B5062C
:104AD000EF93FF93EEE6FDE40E94AE38FF91EF9175
:104AE000A22FA395BB270E94533800E00093B40681
:104AF00001E00093B506EF93FF93E2E3FDE40E942B
:104B0000AE38FF91EF9130E04FD162D10E9453381F
:104B100000E00093B4060090B50609E0000E009294
:104B2000B506EF93FF93EEE3FDE40E94AE38FF91EC
:104B3000EF9131E039D14CD10E94533800E000931D
:104B4000B4060090B50609E0000E0092B506EF939A
:104B5000FF93EAE4FDE40E94AE38FF91EF9132E06A
:104B600023D136D10E94533800E00093B406009060
:104B7000B50609E0000E0092B506EF93FF93E6E557
:104B8000FDE40E94AE38FF91EF9133E00DD120D1CA
:104B90000E94533800E00093B4060090B50609E087
:104BA000000E0092B506EF93FF93E2E6FDE40E944B
:104BB000AE38FF91EF9134E0F7D00AD10E9453381C
:104BC00000E00093B4060090B50609E0000E0092E4
:104BD000B506EF93FF93E2E7FDE40E94AE38FF9144
:104BE000EF9135E0E1D00F9300FF09C0EF93FF9301
:104BF000EAE9FDE40E94AE38FF91EF9108C0EF931F
:104C0000FF93E4E9FDE40E94AE38FF91EF9105E4E3
:104C10000093B406EF93FF93E8E7FDE40E94AE38FB
:104C2000FF91EF910F9101FF09C0EF93FF93EEE920
:104C3000FDE40E94AE38FF91EF9108C0EF93FF931F
:104C4000E4EAFDE40E94AE38FF91EF9100E00093AA
:104C5000B40609E30093B506EF93FF93EEE7FDE496
:104C60000E94AE38FF91EF91E2E1FDE404E0019F84
:104C7000E00DF11D05910093B40605910093B50672
:104C800005910093B60604910093B70600E00093E7
:104C9000B8060E94CC370E94413A0E940D3B083072
:104CA00009F40895043019F41A95177003CF0230EF
:104CB00019F413951770FECE013051F5103019F428
:104CC00023952770F7CE113078F0163068F4312F25
:104CD0003A956AD07DD0C1E8DFEFEFE7F0E00E94BF
:104CE0008B24002D64D0E6CE163041F435E05CD044
:104CF000A1E00A2700FD02605AD0DCCE173041F453
:104D000035E052D0A2E00A2700FD026050D0D2CE9A
:104D1000D1CE78007F0A3A0056093A0956123A1263
:104D2000561B3A1B56243A24562D1D2D3C36632D16
:104D30007C365468726F74746C653A200000416967
:104D40006C65726F6E203A200000456C6576617468
:104D50006F723A20000052756464657220203A2018
:104D600000004F666673657420203A2000004348B7
:104D70003A00547970653A00526174653A004241D4
:104D8000434B2050524556204E45585420434841ED
:104D90004E474500536572766F004553430048699E
:104DA000676800004C6F770007D00C94423B0F936C
:104DB00003D00F910C944A3BE4E0F0E0022F000F87
:104DC000000F000FE00F0027F01FE30FF01F089502
:104DD000A02FBB27AA230AF4BFEF0895E0E0F5E077
:104DE000D6D00091C7050093FA050091C80500933D
:104DF000FB050091C9050093FC0500914005009357
:104E0000CA05009141050093CB050091420500932E
:104E1000CC05E8E0F5E0BBD00091C7050093FD05A7
:104E20000091C8050093FE050091C9050093FF0598
:104E3000009140050093CD05009141050093CE05FA
:104E4000009142050093CF05E0E1F5E0A0D000918C
:104E5000C705009300060091C80500930106009164
:104E6000C90500930206009140050093D00500910A
:104E700041050093D105009142050093D205E8E178
:104E8000F5E085D00091C705009303060091C805A1
:104E9000009304060091C9050093050600914005A2
:104EA0000093D305009141050093D405009142057C
:104EB0000093D505E0E2F5E06AD00091C7050093C4
:104EC00006060091C805009307060091C9050093E6
:104ED0000806009140050093D60500914105009316
:104EE000D705009142050093D805E8E2F5E04FD0E0
:104EF0000091C705009309060091C80500930A06B2
:104F00000091C90500930B06009140050093D90557
:104F1000009141050093DA05009142050093DB05FD
:104F2000E0E3F5E034D00091C70500930C06009152
:104F3000C80500930D060091C90500930E06009167
:104F400040050093DC05009141050093DD050091CB
:104F500042050093DE05E8E3F5E019D00091C705AE
:104F600000930F060091C805009310060091C90533
:104F700000931106009140050093DF050091410563
:104F80000093E005009142050093E1050895DD27B7
:104F9000A481BB27AA2312F4DFEFBFEFB093C705AC
:104FA000A093C805D093C90500E0009340050CE22A
:104FB0000093410506E6009342051091C705209134
:104FC000C8053091C9054091400550914105609157
:104FD00042050E94653B7093C7058093C8052092E7
:104FE000C905B091C705A091C805D091C905008138
:104FF00030914C0540914D0550914E050E94AB3BC0
:10500000018130917F0540918005509181050E947A
:10501000AB3B02813091820540918305509184051C
:105020000E94AB3B038130918505409186055091EC
:1050300087050E94AB3BB0934005A0934105D093F8
:10504000420508950E947D373091550540915605DF
:105050005091570560915E0570915F0580916005E4
:10506000581B470B360B309355054093560550930C
:105070005705309158054091590550915A05609156
:1050800061057091620580916305581B470B360BD3
:10509000309358054093590550935A0530915B055C
:1050A00040915C0550915D056091640570916505C6
:1050B00080916605581B470B360B30935B05409378
:1050C0005C0550935D0530916705409168055091EE
:1050D0006905609170057091710580917205581B8A
:1050E000470B360B3093670540936805509369056D
:1050F00030916A0540916B0550916C056091730584
:105100007091740580917505581B470B360B3093D1
:105110006A0540936B0550936C0530916D05409185
:105120006E0550916F0560917605709177058091BD
:105130007805581B470B360B30936D0540936E0571
:1051400050936F053091670540916805509169054E
:1051500060914E0670914F0680915006580F471F80
:10516000361F309367054093680550936905309169
:105170006A0540916B0550916C0560914B067091EA
:105180004C0680914D06580F471F361F30936A0515
:1051900040936B0550936C0500E00093120600E00D
:1051A0000093130607E000931406309167054091C1
:1051B0006805509169056091690670916A06809151
:1051C0006B06581B470B360B3093910540939205A5
:1051D000509393051091910520919205309193057C
:1051E0004091120650911306609114060E94653B8F
:1051F00070939105809392052092930530916906F2
:1052000040916A0650916B066091910570919205EC
:1052100080919305580F471F361F309369064093BE
:105220006A0650936B0630916A0540916B05509168
:105230006C0560916C0670916D0680916E06581B2E
:10524000470B360B3093910540939205509393058D
:10525000109191052091920530919305409112068D
:1052600050911306609114060E94653B709391055E
:10527000809392052092930530916C0640916D06C3
:1052800050916E0660919105709192058091930501
:10529000580F471F361F30936C0640936D0650938E
:1052A0006E0630916D0540916E0550916F056091CD
:1052B0006F067091700680917106581B470B360B74
:1052C0003093910540939205509393051091910569
:1052D000209192053091930540911206509113064A
:1052E000609114060E94653B70939105809392052E
:1052F0002092930530916F0640917006509171068F
:10530000609191057091920580919305580F471F08
:10531000361F30936F06409370065093710600E07D
:105320000093400500E00093410503EB0093420524
:1053300010916C0620916D0630916E0640914005EB
:1053400050914105609142050E94653B709324068F
:1053500080932506209226061091690620916A0600
:1053600030916B0640914005509141056091420596
:105370000E94653B70932706809328062092290699
:1053800000E00093400504E10093410500E0009334
:1053900042053091270640912806509129066091D8
:1053A000400570914105809142055817470736071F
:1053B0000CF0F5C030912406409125065091260648
:1053C000609140057091410580914205581747074B
:1053D00036070CF0E4C06091400570914105809162
:1053E0004205552744273327581B470B360B30936C
:1053F0004005409341055093420530912706409166
:1054000028065091290660914005709141058091D0
:1054100042055817470736070CF4C1C030912406DF
:1054200040912506509126066091400570914105F6
:10543000809142055817470736070CF4B0C000E0CA
:10544000009340050CE30093410500E00093420502
:1054500030916F0640917006509171066091400541
:1054600070914105809142055817470736070CF0A7
:1054700096C0609140057091410580914205552785
:1054800044273327581B470B360B30934005409376
:1054900041055093420530916F064091700650913E
:1054A0007106609140057091410580914205581741
:1054B000470736070CF473C03091600640916106CF
:1054C000509162066091240670912506809126060F
:1054D000581B470B360B30934005409341055093C2
:1054E000420560914005709141058091420502E0BE
:1054F0000E94563B6093400570934105809342059E
:1055000030915505409156055091570560914005E1
:105510007091410580914205580F471F361F309307
:1055200055054093560550935705309163064091B9
:105530006406509165066091270670912806809157
:105540002906581B470B360B309340054093410505
:10555000509342056091400570914105809142054C
:1055600002E00E94563B6093400570934105809392
:105570004205309158054091590550915A05609166
:1055800040057091410580914205580F471F361F15
:10559000309358054093590550935A0500C00E9416
:1055A0003B020E9417030E949E030091E506002320
:1055B000AAF400E0009388050093890500938A050A
:1055C00000E000938B0500938C0500938D0500E0AF
:1055D00000938E0500938F0500939005609146051A
:1055E000709147058091480504E00E94563B609306
:1055F0004605709347058093480560914905709171
:105600004A0580914B0504E00E94563B6093490592
:1056100070934A0580934B0560914F05709150053A
:105620008091510504E00E94563B60934F057093B2
:105630005005809351051091460520914705309102
:1056400048054091BB055091BC056091BD050E9485
:10565000653B70934605809347052092480510915D
:10566000490520914A0530914B054091BE05509166
:10567000BF056091C0050E94653B7093490580930A
:105680004A0520924B0510914F052091500530910D
:1056900051054091C1055091C2056091C3050E941A
:1056A000653B70934F0580935005209251051091F2
:1056B0004C0520914D0530914E054091C405509107
:1056C000C5056091C6050E94653B70934C058093AB
:1056D0004D0520924E050091EB0600230AF002C111
:1056E00060914605709147058091480555274427EC
:1056F0003327581B470B360B30934605409347051D
:105700005093480560914605709147058091480582
:1057100001E00E94563B60934605709347058093D5
:105720004805309160064091610650916206609193
:1057300046057091470580914805581B470B360B6D
:105740003093910540939205509393056091910594
:10575000709192058091930504E00E94563B6093FE
:105760009105709392058093930510919105209176
:10577000920530919305409115065091160660915F
:1057800017060E94653B7093390680933A06209273
:105790003B06009118060093360600911906009307
:1057A000370600911A0600933806C2D200913906D6
:1057B0000093460500913A060093470500913B0689
:1057C0000093480560914605709147058091480512
:1057D00001E00E94563B6093460570934705809315
:1057E00048056091490570914A0580914B05552700
:1057F00044273327581B470B360B309349054093FA
:105800004A0550934B056091490570914A05809176
:105810004B0501E00E94563B6093490570934A0591
:1058200080934B0530916306409164065091650664
:105830006091490570914A0580914B05581B470BB3
:10584000360B3093910540939205509393056091E8
:105850009105709192058091930504E00E94563B5A
:105860006093910570939205809393051091910533
:10587000209192053091930540911506509116069E
:10588000609117060E94653B7093390680933A0633
:1058900020923B06009118060093360600911906E7
:1058A0000093370600911A060093380641D2009102
:1058B00039060093490500913A0600934A05009184
:1058C0003B0600934B056091490570914A05809114
:1058D0004B0501E00E94563B6093490570934A05D1
:1058E00080934B05309155054091560550915705D1
:1058F000609146057091470580914805581B470BFC
:10590000360B309391054093920550939305609127
:105910009105709192058091930501E00E94563B9C
:105920006093910570939205809393051091910572
:1059300020919205309193054091940550919505E1
:10594000609196050E94653B7093390680933A06F4
:1059500020923B0600919D050093360600919E051E
:105960000093370600919F0500933806E1D100911E
:10597000390600937F0500913A0600938005009157
:105980003B0600938105609191057091920580918D
:10599000930503E00E94563B609391057093920536
:1059A0008093930510919105209192053091930574
:1059B0004091A6055091A7056091A8050E94653BFE
:1059C00070934005809341052092420530918805EF
:1059D0004091890550918A0560914005709141057B
:1059E00080914205580F471F361F30933906409368
:1059F0003A0650933B060091AF050093360600919E
:105A0000B005009337060091B1050093380690D198
:105A1000009139060093880500913A0600938905A4
:105A200000913B0600938A0530917F0540918005E7
:105A300050918105609188057091890580918A0552
:105A4000580F471F361F30937F05409380055093B2
:105A500081053091490540914A0550914B0560916F
:105A600058057091590580915A05581B470B360B04
:105A70003093910540939205509393056091910561
:105A8000709192058091930501E00E94563B6093CE
:105A90009105709392058093930510919105209143
:105AA000920530919305409197055091980560912A
:105AB00099050E94653B7093390680933A062092BF
:105AC0003B060091A005009336060091A1050093C6
:105AD00037060091A205009338062AD100913906B5
